{"abi":[{"type":"constructor","inputs":[],"stateMutability":"nonpayable"},{"type":"function","name":"CurrenTokenID","inputs":[],"outputs":[{"name":"","type":"uint256","internalType":"uint256"}],"stateMutability":"view"},{"type":"function","name":"approve","inputs":[{"name":"to","type":"address","internalType":"address"},{"name":"tokenId","type":"uint256","internalType":"uint256"}],"outputs":[],"stateMutability":"nonpayable"},{"type":"function","name":"balanceOf","inputs":[{"name":"owner","type":"address","internalType":"address"}],"outputs":[{"name":"","type":"uint256","internalType":"uint256"}],"stateMutability":"view"},{"type":"function","name":"burn","inputs":[{"name":"_tokenId","type":"uint256","internalType":"uint256"}],"outputs":[],"stateMutability":"nonpayable"},{"type":"function","name":"getApproved","inputs":[{"name":"tokenId","type":"uint256","internalType":"uint256"}],"outputs":[{"name":"","type":"address","internalType":"address"}],"stateMutability":"view"},{"type":"function","name":"isApprovedForAll","inputs":[{"name":"owner","type":"address","internalType":"address"},{"name":"operator","type":"address","internalType":"address"}],"outputs":[{"name":"","type":"bool","internalType":"bool"}],"stateMutability":"view"},{"type":"function","name":"mint","inputs":[{"name":"to","type":"address","internalType":"address"}],"outputs":[{"name":"","type":"uint256","internalType":"uint256"}],"stateMutability":"nonpayable"},{"type":"function","name":"name","inputs":[],"outputs":[{"name":"","type":"string","internalType":"string"}],"stateMutability":"view"},{"type":"function","name":"owner","inputs":[],"outputs":[{"name":"","type":"address","internalType":"address"}],"stateMutability":"view"},{"type":"function","name":"ownerOf","inputs":[{"name":"tokenId","type":"uint256","internalType":"uint256"}],"outputs":[{"name":"","type":"address","internalType":"address"}],"stateMutability":"view"},{"type":"function","name":"renounceOwnership","inputs":[],"outputs":[],"stateMutability":"nonpayable"},{"type":"function","name":"safeTransferFrom","inputs":[{"name":"from","type":"address","internalType":"address"},{"name":"to","type":"address","internalType":"address"},{"name":"tokenId","type":"uint256","internalType":"uint256"}],"outputs":[],"stateMutability":"nonpayable"},{"type":"function","name":"safeTransferFrom","inputs":[{"name":"from","type":"address","internalType":"address"},{"name":"to","type":"address","internalType":"address"},{"name":"tokenId","type":"uint256","internalType":"uint256"},{"name":"data","type":"bytes","internalType":"bytes"}],"outputs":[],"stateMutability":"nonpayable"},{"type":"function","name":"setApprovalForAll","inputs":[{"name":"operator","type":"address","internalType":"address"},{"name":"approved","type":"bool","internalType":"bool"}],"outputs":[],"stateMutability":"nonpayable"},{"type":"function","name":"supportsInterface","inputs":[{"name":"interfaceId","type":"bytes4","internalType":"bytes4"}],"outputs":[{"name":"","type":"bool","internalType":"bool"}],"stateMutability":"view"},{"type":"function","name":"symbol","inputs":[],"outputs":[{"name":"","type":"string","internalType":"string"}],"stateMutability":"view"},{"type":"function","name":"tokenURI","inputs":[{"name":"tokenId","type":"uint256","internalType":"uint256"}],"outputs":[{"name":"","type":"string","internalType":"string"}],"stateMutability":"view"},{"type":"function","name":"transferFrom","inputs":[{"name":"from","type":"address","internalType":"address"},{"name":"to","type":"address","internalType":"address"},{"name":"tokenId","type":"uint256","internalType":"uint256"}],"outputs":[],"stateMutability":"nonpayable"},{"type":"function","name":"transferOwnership","inputs":[{"name":"newOwner","type":"address","internalType":"address"}],"outputs":[],"stateMutability":"nonpayable"},{"type":"event","name":"Approval","inputs":[{"name":"owner","type":"address","indexed":true,"internalType":"address"},{"name":"approved","type":"address","indexed":true,"internalType":"address"},{"name":"tokenId","type":"uint256","indexed":true,"internalType":"uint256"}],"anonymous":false},{"type":"event","name":"ApprovalForAll","inputs":[{"name":"owner","type":"address","indexed":true,"internalType":"address"},{"name":"operator","type":"address","indexed":true,"internalType":"address"},{"name":"approved","type":"bool","indexed":false,"internalType":"bool"}],"anonymous":false},{"type":"event","name":"BidBeastsBurn","inputs":[{"name":"from","type":"address","indexed":true,"internalType":"address"},{"name":"tokenId","type":"uint256","indexed":true,"internalType":"uint256"}],"anonymous":false},{"type":"event","name":"BidBeastsMinted","inputs":[{"name":"to","type":"address","indexed":true,"internalType":"address"},{"name":"tokenId","type":"uint256","indexed":true,"internalType":"uint256"}],"anonymous":false},{"type":"event","name":"OwnershipTransferred","inputs":[{"name":"previousOwner","type":"address","indexed":true,"internalType":"address"},{"name":"newOwner","type":"address","indexed":true,"internalType":"address"}],"anonymous":false},{"type":"event","name":"Transfer","inputs":[{"name":"from","type":"address","indexed":true,"internalType":"address"},{"name":"to","type":"address","indexed":true,"internalType":"address"},{"name":"tokenId","type":"uint256","indexed":true,"internalType":"uint256"}],"anonymous":false},{"type":"error","name":"ERC721IncorrectOwner","inputs":[{"name":"sender","type":"address","internalType":"address"},{"name":"tokenId","type":"uint256","internalType":"uint256"},{"name":"owner","type":"address","internalType":"address"}]},{"type":"error","name":"ERC721InsufficientApproval","inputs":[{"name":"operator","type":"address","internalType":"address"},{"name":"tokenId","type":"uint256","internalType":"uint256"}]},{"type":"error","name":"ERC721InvalidApprover","inputs":[{"name":"approver","type":"address","internalType":"address"}]},{"type":"error","name":"ERC721InvalidOperator","inputs":[{"name":"operator","type":"address","internalType":"address"}]},{"type":"error","name":"ERC721InvalidOwner","inputs":[{"name":"owner","type":"address","internalType":"address"}]},{"type":"error","name":"ERC721InvalidReceiver","inputs":[{"name":"receiver","type":"address","internalType":"address"}]},{"type":"error","name":"ERC721InvalidSender","inputs":[{"name":"sender","type":"address","internalType":"address"}]},{"type":"error","name":"ERC721NonexistentToken","inputs":[{"name":"tokenId","type":"uint256","internalType":"uint256"}]},{"type":"error","name":"OwnableInvalidOwner","inputs":[{"name":"owner","type":"address","internalType":"address"}]},{"type":"error","name":"OwnableUnauthorizedAccount","inputs":[{"name":"account","type":"address","internalType":"address"}]}],"bytecode":{"object":"0x608060405234801562000010575f80fd5b50336040518060400160405280600a81526020017f476f646469655f4e4654000000000000000000000000000000000000000000008152506040518060400160405280600581526020017f47444e4654000000000000000000000000000000000000000000000000000000815250815f90816200008e919062000455565b508060019081620000a0919062000455565b5050505f73ffffffffffffffffffffffffffffffffffffffff168173ffffffffffffffffffffffffffffffffffffffff160362000116575f6040517f1e4fbdf70000000000000000000000000000000000000000000000000000000081526004016200010d91906200057c565b60405180910390fd5b62000127816200012e60201b60201c565b5062000597565b5f60065f9054906101000a900473ffffffffffffffffffffffffffffffffffffffff1690508160065f6101000a81548173ffffffffffffffffffffffffffffffffffffffff021916908373ffffffffffffffffffffffffffffffffffffffff1602179055508173ffffffffffffffffffffffffffffffffffffffff168173ffffffffffffffffffffffffffffffffffffffff167f8be0079c531659141344cd1fd0a4f28419497f9722a3daafe3b4186f6b6457e060405160405180910390a35050565b5f81519050919050565b7f4e487b71000000000000000000000000000000000000000000000000000000005f52604160045260245ffd5b7f4e487b71000000000000000000000000000000000000000000000000000000005f52602260045260245ffd5b5f60028204905060018216806200026d57607f821691505b60208210810362000283576200028262000228565b5b50919050565b5f819050815f5260205f209050919050565b5f6020601f8301049050919050565b5f82821b905092915050565b5f60088302620002e77fffffffffffffffffffffffffffffffffffffffffffffffffffffffffffffffff82620002aa565b620002f38683620002aa565b95508019841693508086168417925050509392505050565b5f819050919050565b5f819050919050565b5f6200033d6200033762000331846200030b565b62000314565b6200030b565b9050919050565b5f819050919050565b62000358836200031d565b62000370620003678262000344565b848454620002b6565b825550505050565b5f90565b6200038662000378565b620003938184846200034d565b505050565b5b81811015620003ba57620003ae5f826200037c565b60018101905062000399565b5050565b601f8211156200040957620003d38162000289565b620003de846200029b565b81016020851015620003ee578190505b62000406620003fd856200029b565b83018262000398565b50505b505050565b5f82821c905092915050565b5f6200042b5f19846008026200040e565b1980831691505092915050565b5f6200044583836200041a565b9150826002028217905092915050565b6200046082620001f1565b67ffffffffffffffff8111156200047c576200047b620001fb565b5b62000488825462000255565b62000495828285620003be565b5f60209050601f831160018114620004cb575f8415620004b6578287015190505b620004c2858262000438565b86555062000531565b601f198416620004db8662000289565b5f5b828110156200050457848901518255600182019150602085019450602081019050620004dd565b8683101562000524578489015162000520601f8916826200041a565b8355505b6001600288020188555050505b505050505050565b5f73ffffffffffffffffffffffffffffffffffffffff82169050919050565b5f620005648262000539565b9050919050565b620005768162000558565b82525050565b5f602082019050620005915f8301846200056b565b92915050565b6121e580620005a55f395ff3fe608060405234801561000f575f80fd5b506004361061011f575f3560e01c80636a627842116100ab578063a22cb4651161006f578063a22cb46514610305578063b88d4fde14610321578063c87b56dd1461033d578063e985e9c51461036d578063f2fde38b1461039d5761011f565b80636a6278421461025f57806370a082311461028f578063715018a6146102bf5780638da5cb5b146102c957806395d89b41146102e75761011f565b8063142bf852116100f2578063142bf852146101bd57806323b872dd146101db57806342842e0e146101f757806342966c68146102135780636352211e1461022f5761011f565b806301ffc9a71461012357806306fdde0314610153578063081812fc14610171578063095ea7b3146101a1575b5f80fd5b61013d60048036038101906101389190611a02565b6103b9565b60405161014a9190611a47565b60405180910390f35b61015b61049a565b6040516101689190611aea565b60405180910390f35b61018b60048036038101906101869190611b3d565b610529565b6040516101989190611ba7565b60405180910390f35b6101bb60048036038101906101b69190611bea565b610544565b005b6101c561055a565b6040516101d29190611c37565b60405180910390f35b6101f560048036038101906101f09190611c50565b610560565b005b610211600480360381019061020c9190611c50565b61065f565b005b61022d60048036038101906102289190611b3d565b61067e565b005b61024960048036038101906102449190611b3d565b6106ce565b6040516102569190611ba7565b60405180910390f35b61027960048036038101906102749190611ca0565b6106df565b6040516102869190611c37565b60405180910390f35b6102a960048036038101906102a49190611ca0565b61075c565b6040516102b69190611c37565b60405180910390f35b6102c7610812565b005b6102d1610825565b6040516102de9190611ba7565b60405180910390f35b6102ef61084d565b6040516102fc9190611aea565b60405180910390f35b61031f600480360381019061031a9190611cf5565b6108dd565b005b61033b60048036038101906103369190611e5f565b6108f3565b005b61035760048036038101906103529190611b3d565b610918565b6040516103649190611aea565b60405180910390f35b61038760048036038101906103829190611edf565b61097e565b6040516103949190611a47565b60405180910390f35b6103b760048036038101906103b29190611ca0565b610a0c565b005b5f7f80ac58cd000000000000000000000000000000000000000000000000000000007bffffffffffffffffffffffffffffffffffffffffffffffffffffffff1916827bffffffffffffffffffffffffffffffffffffffffffffffffffffffff1916148061048357507f5b5e139f000000000000000000000000000000000000000000000000000000007bffffffffffffffffffffffffffffffffffffffffffffffffffffffff1916827bffffffffffffffffffffffffffffffffffffffffffffffffffffffff1916145b80610493575061049282610a90565b5b9050919050565b60605f80546104a890611f4a565b80601f01602080910402602001604051908101604052809291908181526020018280546104d490611f4a565b801561051f5780601f106104f65761010080835404028352916020019161051f565b820191905f5260205f20905b81548152906001019060200180831161050257829003601f168201915b5050505050905090565b5f61053382610af9565b5061053d82610b7f565b9050919050565b6105568282610551610bb8565b610bbf565b5050565b60075481565b5f73ffffffffffffffffffffffffffffffffffffffff168273ffffffffffffffffffffffffffffffffffffffff16036105d0575f6040517f64a0ae920000000000000000000000000000000000000000000000000000000081526004016105c79190611ba7565b60405180910390fd5b5f6105e383836105de610bb8565b610bd1565b90508373ffffffffffffffffffffffffffffffffffffffff168173ffffffffffffffffffffffffffffffffffffffff1614610659578382826040517f64283d7b00000000000000000000000000000000000000000000000000000000815260040161065093929190611f7a565b60405180910390fd5b50505050565b61067983838360405180602001604052805f8152506108f3565b505050565b61068781610ddc565b803373ffffffffffffffffffffffffffffffffffffffff167f5df9e06ac823ee598ba0c6d30fca25e40171b65c898094cd4e046f8bd99963ab60405160405180910390a350565b5f6106d882610af9565b9050919050565b5f6106e8610e5e565b5f60075490506106f88382610ee5565b808373ffffffffffffffffffffffffffffffffffffffff167fbaedbad200b7ac69e2a7e3a799d4906cf9775d7a42443d7dabb6ae43110b9f7860405160405180910390a360075f81548092919061074e90611fdc565b919050555080915050919050565b5f8073ffffffffffffffffffffffffffffffffffffffff168273ffffffffffffffffffffffffffffffffffffffff16036107cd575f6040517f89c62b640000000000000000000000000000000000000000000000000000000081526004016107c49190611ba7565b60405180910390fd5b60035f8373ffffffffffffffffffffffffffffffffffffffff1673ffffffffffffffffffffffffffffffffffffffff1681526020019081526020015f20549050919050565b61081a610e5e565b6108235f610f02565b565b5f60065f9054906101000a900473ffffffffffffffffffffffffffffffffffffffff16905090565b60606001805461085c90611f4a565b80601f016020809104026020016040519081016040528092919081815260200182805461088890611f4a565b80156108d35780601f106108aa576101008083540402835291602001916108d3565b820191905f5260205f20905b8154815290600101906020018083116108b657829003601f168201915b5050505050905090565b6108ef6108e8610bb8565b8383610fc5565b5050565b6108fe848484610560565b610912610909610bb8565b8585858561112e565b50505050565b606061092382610af9565b505f61092d6112da565b90505f81511161094b5760405180602001604052805f815250610976565b80610955846112f0565b60405160200161096692919061205d565b6040516020818303038152906040525b915050919050565b5f60055f8473ffffffffffffffffffffffffffffffffffffffff1673ffffffffffffffffffffffffffffffffffffffff1681526020019081526020015f205f8373ffffffffffffffffffffffffffffffffffffffff1673ffffffffffffffffffffffffffffffffffffffff1681526020019081526020015f205f9054906101000a900460ff16905092915050565b610a14610e5e565b5f73ffffffffffffffffffffffffffffffffffffffff168173ffffffffffffffffffffffffffffffffffffffff1603610a84575f6040517f1e4fbdf7000000000000000000000000000000000000000000000000000000008152600401610a7b9190611ba7565b60405180910390fd5b610a8d81610f02565b50565b5f7f01ffc9a7000000000000000000000000000000000000000000000000000000007bffffffffffffffffffffffffffffffffffffffffffffffffffffffff1916827bffffffffffffffffffffffffffffffffffffffffffffffffffffffff1916149050919050565b5f80610b04836113ba565b90505f73ffffffffffffffffffffffffffffffffffffffff168173ffffffffffffffffffffffffffffffffffffffff1603610b7657826040517f7e273289000000000000000000000000000000000000000000000000000000008152600401610b6d9190611c37565b60405180910390fd5b80915050919050565b5f60045f8381526020019081526020015f205f9054906101000a900473ffffffffffffffffffffffffffffffffffffffff169050919050565b5f33905090565b610bcc83838360016113f3565b505050565b5f80610bdc846113ba565b90505f73ffffffffffffffffffffffffffffffffffffffff168373ffffffffffffffffffffffffffffffffffffffff1614610c1d57610c1c8184866115b2565b5b5f73ffffffffffffffffffffffffffffffffffffffff168173ffffffffffffffffffffffffffffffffffffffff1614610ca857610c5c5f855f806113f3565b600160035f8373ffffffffffffffffffffffffffffffffffffffff1673ffffffffffffffffffffffffffffffffffffffff1681526020019081526020015f205f82825403925050819055505b5f73ffffffffffffffffffffffffffffffffffffffff168573ffffffffffffffffffffffffffffffffffffffff1614610d2757600160035f8773ffffffffffffffffffffffffffffffffffffffff1673ffffffffffffffffffffffffffffffffffffffff1681526020019081526020015f205f82825401925050819055505b8460025f8681526020019081526020015f205f6101000a81548173ffffffffffffffffffffffffffffffffffffffff021916908373ffffffffffffffffffffffffffffffffffffffff160217905550838573ffffffffffffffffffffffffffffffffffffffff168273ffffffffffffffffffffffffffffffffffffffff167fddf252ad1be2c89b69c2b068fc378daa952ba7f163c4a11628f55a4df523b3ef60405160405180910390a4809150509392505050565b5f610de85f835f610bd1565b90505f73ffffffffffffffffffffffffffffffffffffffff168173ffffffffffffffffffffffffffffffffffffffff1603610e5a57816040517f7e273289000000000000000000000000000000000000000000000000000000008152600401610e519190611c37565b60405180910390fd5b5050565b610e66610bb8565b73ffffffffffffffffffffffffffffffffffffffff16610e84610825565b73ffffffffffffffffffffffffffffffffffffffff1614610ee357610ea7610bb8565b6040517f118cdaa7000000000000000000000000000000000000000000000000000000008152600401610eda9190611ba7565b60405180910390fd5b565b610efe828260405180602001604052805f815250611675565b5050565b5f60065f9054906101000a900473ffffffffffffffffffffffffffffffffffffffff1690508160065f6101000a81548173ffffffffffffffffffffffffffffffffffffffff021916908373ffffffffffffffffffffffffffffffffffffffff1602179055508173ffffffffffffffffffffffffffffffffffffffff168173ffffffffffffffffffffffffffffffffffffffff167f8be0079c531659141344cd1fd0a4f28419497f9722a3daafe3b4186f6b6457e060405160405180910390a35050565b5f73ffffffffffffffffffffffffffffffffffffffff168273ffffffffffffffffffffffffffffffffffffffff160361103557816040517f5b08ba1800000000000000000000000000000000000000000000000000000000815260040161102c9190611ba7565b60405180910390fd5b8060055f8573ffffffffffffffffffffffffffffffffffffffff1673ffffffffffffffffffffffffffffffffffffffff1681526020019081526020015f205f8473ffffffffffffffffffffffffffffffffffffffff1673ffffffffffffffffffffffffffffffffffffffff1681526020019081526020015f205f6101000a81548160ff0219169083151502179055508173ffffffffffffffffffffffffffffffffffffffff168373ffffffffffffffffffffffffffffffffffffffff167f17307eab39ab6107e8899845ad3d59bd9653f200f220920489ca2b5937696c31836040516111219190611a47565b60405180910390a3505050565b5f8373ffffffffffffffffffffffffffffffffffffffff163b11156112d3578273ffffffffffffffffffffffffffffffffffffffff1663150b7a02868685856040518563ffffffff1660e01b815260040161118c94939291906120d2565b6020604051808303815f875af19250505080156111c757506040513d601f19601f820116820180604052508101906111c49190612130565b60015b611248573d805f81146111f5576040519150601f19603f3d011682016040523d82523d5f602084013e6111fa565b606091505b505f81510361124057836040517f64a0ae920000000000000000000000000000000000000000000000000000000081526004016112379190611ba7565b60405180910390fd5b805160208201fd5b63150b7a0260e01b7bffffffffffffffffffffffffffffffffffffffffffffffffffffffff1916817bffffffffffffffffffffffffffffffffffffffffffffffffffffffff1916146112d157836040517f64a0ae920000000000000000000000000000000000000000000000000000000081526004016112c89190611ba7565b60405180910390fd5b505b5050505050565b606060405180602001604052805f815250905090565b60605f60016112fe84611698565b0190505f8167ffffffffffffffff81111561131c5761131b611d3b565b5b6040519080825280601f01601f19166020018201604052801561134e5781602001600182028036833780820191505090505b5090505f82602083010190505b6001156113af578080600190039150507f3031323334353637383961626364656600000000000000000000000000000000600a86061a8153600a85816113a4576113a361215b565b5b0494505f850361135b575b819350505050919050565b5f60025f8381526020019081526020015f205f9054906101000a900473ffffffffffffffffffffffffffffffffffffffff169050919050565b808061142b57505f73ffffffffffffffffffffffffffffffffffffffff168273ffffffffffffffffffffffffffffffffffffffff1614155b1561155d575f61143a84610af9565b90505f73ffffffffffffffffffffffffffffffffffffffff168373ffffffffffffffffffffffffffffffffffffffff16141580156114a457508273ffffffffffffffffffffffffffffffffffffffff168173ffffffffffffffffffffffffffffffffffffffff1614155b80156114b757506114b5818461097e565b155b156114f957826040517fa9fbf51f0000000000000000000000000000000000000000000000000000000081526004016114f09190611ba7565b60405180910390fd5b811561155b57838573ffffffffffffffffffffffffffffffffffffffff168273ffffffffffffffffffffffffffffffffffffffff167f8c5be1e5ebec7d5bd14f71427d1e84f3dd0314c0f7b2291e5b200ac8c7c3b92560405160405180910390a45b505b8360045f8581526020019081526020015f205f6101000a81548173ffffffffffffffffffffffffffffffffffffffff021916908373ffffffffffffffffffffffffffffffffffffffff16021790555050505050565b6115bd8383836117e9565b611670575f73ffffffffffffffffffffffffffffffffffffffff168373ffffffffffffffffffffffffffffffffffffffff160361163157806040517f7e2732890000000000000000000000000000000000000000000000000000000081526004016116289190611c37565b60405180910390fd5b81816040517f177e802f000000000000000000000000000000000000000000000000000000008152600401611667929190612188565b60405180910390fd5b505050565b61167f83836118a9565b61169361168a610bb8565b5f85858561112e565b505050565b5f805f90507a184f03e93ff9f4daa797ed6e38ed64bf6a1f01000000000000000083106116f4577a184f03e93ff9f4daa797ed6e38ed64bf6a1f01000000000000000083816116ea576116e961215b565b5b0492506040810190505b6d04ee2d6d415b85acef81000000008310611731576d04ee2d6d415b85acef810000000083816117275761172661215b565b5b0492506020810190505b662386f26fc10000831061176057662386f26fc1000083816117565761175561215b565b5b0492506010810190505b6305f5e1008310611789576305f5e100838161177f5761177e61215b565b5b0492506008810190505b61271083106117ae5761271083816117a4576117a361215b565b5b0492506004810190505b606483106117d157606483816117c7576117c661215b565b5b0492506002810190505b600a83106117e0576001810190505b80915050919050565b5f8073ffffffffffffffffffffffffffffffffffffffff168373ffffffffffffffffffffffffffffffffffffffff16141580156118a057508273ffffffffffffffffffffffffffffffffffffffff168473ffffffffffffffffffffffffffffffffffffffff1614806118615750611860848461097e565b5b8061189f57508273ffffffffffffffffffffffffffffffffffffffff1661188783610b7f565b73ffffffffffffffffffffffffffffffffffffffff16145b5b90509392505050565b5f73ffffffffffffffffffffffffffffffffffffffff168273ffffffffffffffffffffffffffffffffffffffff1603611919575f6040517f64a0ae920000000000000000000000000000000000000000000000000000000081526004016119109190611ba7565b60405180910390fd5b5f61192583835f610bd1565b90505f73ffffffffffffffffffffffffffffffffffffffff168173ffffffffffffffffffffffffffffffffffffffff1614611997575f6040517f73c6ac6e00000000000000000000000000000000000000000000000000000000815260040161198e9190611ba7565b60405180910390fd5b505050565b5f604051905090565b5f80fd5b5f80fd5b5f7fffffffff0000000000000000000000000000000000000000000000000000000082169050919050565b6119e1816119ad565b81146119eb575f80fd5b50565b5f813590506119fc816119d8565b92915050565b5f60208284031215611a1757611a166119a5565b5b5f611a24848285016119ee565b91505092915050565b5f8115159050919050565b611a4181611a2d565b82525050565b5f602082019050611a5a5f830184611a38565b92915050565b5f81519050919050565b5f82825260208201905092915050565b5f5b83811015611a97578082015181840152602081019050611a7c565b5f8484015250505050565b5f601f19601f8301169050919050565b5f611abc82611a60565b611ac68185611a6a565b9350611ad6818560208601611a7a565b611adf81611aa2565b840191505092915050565b5f6020820190508181035f830152611b028184611ab2565b905092915050565b5f819050919050565b611b1c81611b0a565b8114611b26575f80fd5b50565b5f81359050611b3781611b13565b92915050565b5f60208284031215611b5257611b516119a5565b5b5f611b5f84828501611b29565b91505092915050565b5f73ffffffffffffffffffffffffffffffffffffffff82169050919050565b5f611b9182611b68565b9050919050565b611ba181611b87565b82525050565b5f602082019050611bba5f830184611b98565b92915050565b611bc981611b87565b8114611bd3575f80fd5b50565b5f81359050611be481611bc0565b92915050565b5f8060408385031215611c0057611bff6119a5565b5b5f611c0d85828601611bd6565b9250506020611c1e85828601611b29565b9150509250929050565b611c3181611b0a565b82525050565b5f602082019050611c4a5f830184611c28565b92915050565b5f805f60608486031215611c6757611c666119a5565b5b5f611c7486828701611bd6565b9350506020611c8586828701611bd6565b9250506040611c9686828701611b29565b9150509250925092565b5f60208284031215611cb557611cb46119a5565b5b5f611cc284828501611bd6565b91505092915050565b611cd481611a2d565b8114611cde575f80fd5b50565b5f81359050611cef81611ccb565b92915050565b5f8060408385031215611d0b57611d0a6119a5565b5b5f611d1885828601611bd6565b9250506020611d2985828601611ce1565b9150509250929050565b5f80fd5b5f80fd5b7f4e487b71000000000000000000000000000000000000000000000000000000005f52604160045260245ffd5b611d7182611aa2565b810181811067ffffffffffffffff82111715611d9057611d8f611d3b565b5b80604052505050565b5f611da261199c565b9050611dae8282611d68565b919050565b5f67ffffffffffffffff821115611dcd57611dcc611d3b565b5b611dd682611aa2565b9050602081019050919050565b828183375f83830152505050565b5f611e03611dfe84611db3565b611d99565b905082815260208101848484011115611e1f57611e1e611d37565b5b611e2a848285611de3565b509392505050565b5f82601f830112611e4657611e45611d33565b5b8135611e56848260208601611df1565b91505092915050565b5f805f8060808587031215611e7757611e766119a5565b5b5f611e8487828801611bd6565b9450506020611e9587828801611bd6565b9350506040611ea687828801611b29565b925050606085013567ffffffffffffffff811115611ec757611ec66119a9565b5b611ed387828801611e32565b91505092959194509250565b5f8060408385031215611ef557611ef46119a5565b5b5f611f0285828601611bd6565b9250506020611f1385828601611bd6565b9150509250929050565b7f4e487b71000000000000000000000000000000000000000000000000000000005f52602260045260245ffd5b5f6002820490506001821680611f6157607f821691505b602082108103611f7457611f73611f1d565b5b50919050565b5f606082019050611f8d5f830186611b98565b611f9a6020830185611c28565b611fa76040830184611b98565b949350505050565b7f4e487b71000000000000000000000000000000000000000000000000000000005f52601160045260245ffd5b5f611fe682611b0a565b91507fffffffffffffffffffffffffffffffffffffffffffffffffffffffffffffffff820361201857612017611faf565b5b600182019050919050565b5f81905092915050565b5f61203782611a60565b6120418185612023565b9350612051818560208601611a7a565b80840191505092915050565b5f612068828561202d565b9150612074828461202d565b91508190509392505050565b5f81519050919050565b5f82825260208201905092915050565b5f6120a482612080565b6120ae818561208a565b93506120be818560208601611a7a565b6120c781611aa2565b840191505092915050565b5f6080820190506120e55f830187611b98565b6120f26020830186611b98565b6120ff6040830185611c28565b8181036060830152612111818461209a565b905095945050505050565b5f8151905061212a816119d8565b92915050565b5f60208284031215612145576121446119a5565b5b5f6121528482850161211c565b91505092915050565b7f4e487b71000000000000000000000000000000000000000000000000000000005f52601260045260245ffd5b5f60408201905061219b5f830185611b98565b6121a86020830184611c28565b939250505056fea26469706673582212203044921ffaa82da1e367df94a457d60473a345fd4402d625de0458b1a29302b664736f6c63430008140033","linkReferences":{}},"methodIdentifiers":{"CurrenTokenID()":"142bf852","approve(address,uint256)":"095ea7b3","balanceOf(address)":"70a08231","burn(uint256)":"42966c68","getApproved(uint256)":"081812fc","isApprovedForAll(address,address)":"e985e9c5","mint(address)":"6a627842","name()":"06fdde03","owner()":"8da5cb5b","ownerOf(uint256)":"6352211e","renounceOwnership()":"715018a6","safeTransferFrom(address,address,uint256)":"42842e0e","safeTransferFrom(address,address,uint256,bytes)":"b88d4fde","setApprovalForAll(address,bool)":"a22cb465","supportsInterface(bytes4)":"01ffc9a7","symbol()":"95d89b41","tokenURI(uint256)":"c87b56dd","transferFrom(address,address,uint256)":"23b872dd","transferOwnership(address)":"f2fde38b"},"id":37}