{"abi":[{"type":"constructor","inputs":[{"name":"_BidBeastsNFT","type":"address","internalType":"address"}],"stateMutability":"nonpayable"},{"type":"function","name":"BBERC721","inputs":[],"outputs":[{"name":"","type":"address","internalType":"contract BidBeasts"}],"stateMutability":"view"},{"type":"function","name":"S_AUCTION_EXTENSION_DURATION","inputs":[],"outputs":[{"name":"","type":"uint256","internalType":"uint256"}],"stateMutability":"view"},{"type":"function","name":"S_FEE_PERCENTAGE","inputs":[],"outputs":[{"name":"","type":"uint256","internalType":"uint256"}],"stateMutability":"view"},{"type":"function","name":"S_MIN_BID_INCREMENT_PERCENTAGE","inputs":[],"outputs":[{"name":"","type":"uint256","internalType":"uint256"}],"stateMutability":"view"},{"type":"function","name":"S_MIN_NFT_PRICE","inputs":[],"outputs":[{"name":"","type":"uint256","internalType":"uint256"}],"stateMutability":"view"},{"type":"function","name":"bids","inputs":[{"name":"","type":"uint256","internalType":"uint256"}],"outputs":[{"name":"bidder","type":"address","internalType":"address"},{"name":"amount","type":"uint256","internalType":"uint256"}],"stateMutability":"view"},{"type":"function","name":"failedTransferCredits","inputs":[{"name":"","type":"address","internalType":"address"}],"outputs":[{"name":"","type":"uint256","internalType":"uint256"}],"stateMutability":"view"},{"type":"function","name":"getHighestBid","inputs":[{"name":"tokenId","type":"uint256","internalType":"uint256"}],"outputs":[{"name":"","type":"tuple","internalType":"struct BidBeastsNFTMarket.Bid","components":[{"name":"bidder","type":"address","internalType":"address"},{"name":"amount","type":"uint256","internalType":"uint256"}]}],"stateMutability":"view"},{"type":"function","name":"getListing","inputs":[{"name":"tokenId","type":"uint256","internalType":"uint256"}],"outputs":[{"name":"","type":"tuple","internalType":"struct BidBeastsNFTMarket.Listing","components":[{"name":"seller","type":"address","internalType":"address"},{"name":"minPrice","type":"uint256","internalType":"uint256"},{"name":"buyNowPrice","type":"uint256","internalType":"uint256"},{"name":"auctionEnd","type":"uint256","internalType":"uint256"},{"name":"listed","type":"bool","internalType":"bool"}]}],"stateMutability":"view"},{"type":"function","name":"getOwner","inputs":[],"outputs":[{"name":"","type":"address","internalType":"address"}],"stateMutability":"view"},{"type":"function","name":"listNFT","inputs":[{"name":"tokenId","type":"uint256","internalType":"uint256"},{"name":"_minPrice","type":"uint256","internalType":"uint256"},{"name":"_buyNowPrice","type":"uint256","internalType":"uint256"}],"outputs":[],"stateMutability":"nonpayable"},{"type":"function","name":"listings","inputs":[{"name":"","type":"uint256","internalType":"uint256"}],"outputs":[{"name":"seller","type":"address","internalType":"address"},{"name":"minPrice","type":"uint256","internalType":"uint256"},{"name":"buyNowPrice","type":"uint256","internalType":"uint256"},{"name":"auctionEnd","type":"uint256","internalType":"uint256"},{"name":"listed","type":"bool","internalType":"bool"}],"stateMutability":"view"},{"type":"function","name":"owner","inputs":[],"outputs":[{"name":"","type":"address","internalType":"address"}],"stateMutability":"view"},{"type":"function","name":"placeBid","inputs":[{"name":"tokenId","type":"uint256","internalType":"uint256"}],"outputs":[],"stateMutability":"payable"},{"type":"function","name":"renounceOwnership","inputs":[],"outputs":[],"stateMutability":"nonpayable"},{"type":"function","name":"s_totalFee","inputs":[],"outputs":[{"name":"","type":"uint256","internalType":"uint256"}],"stateMutability":"view"},{"type":"function","name":"settleAuction","inputs":[{"name":"tokenId","type":"uint256","internalType":"uint256"}],"outputs":[],"stateMutability":"nonpayable"},{"type":"function","name":"takeHighestBid","inputs":[{"name":"tokenId","type":"uint256","internalType":"uint256"}],"outputs":[],"stateMutability":"nonpayable"},{"type":"function","name":"transferOwnership","inputs":[{"name":"newOwner","type":"address","internalType":"address"}],"outputs":[],"stateMutability":"nonpayable"},{"type":"function","name":"unlistNFT","inputs":[{"name":"tokenId","type":"uint256","internalType":"uint256"}],"outputs":[],"stateMutability":"nonpayable"},{"type":"function","name":"withdrawAllFailedCredits","inputs":[{"name":"_receiver","type":"address","internalType":"address"}],"outputs":[],"stateMutability":"nonpayable"},{"type":"function","name":"withdrawFee","inputs":[],"outputs":[],"stateMutability":"nonpayable"},{"type":"event","name":"AuctionExtended","inputs":[{"name":"tokenId","type":"uint256","indexed":false,"internalType":"uint256"},{"name":"newDeadline","type":"uint256","indexed":false,"internalType":"uint256"}],"anonymous":false},{"type":"event","name":"AuctionSettled","inputs":[{"name":"tokenId","type":"uint256","indexed":false,"internalType":"uint256"},{"name":"winner","type":"address","indexed":false,"internalType":"address"},{"name":"seller","type":"address","indexed":false,"internalType":"address"},{"name":"price","type":"uint256","indexed":false,"internalType":"uint256"}],"anonymous":false},{"type":"event","name":"BidPlaced","inputs":[{"name":"tokenId","type":"uint256","indexed":false,"internalType":"uint256"},{"name":"bidder","type":"address","indexed":false,"internalType":"address"},{"name":"amount","type":"uint256","indexed":false,"internalType":"uint256"}],"anonymous":false},{"type":"event","name":"FeeWithdrawn","inputs":[{"name":"amount","type":"uint256","indexed":false,"internalType":"uint256"}],"anonymous":false},{"type":"event","name":"NftListed","inputs":[{"name":"tokenId","type":"uint256","indexed":false,"internalType":"uint256"},{"name":"seller","type":"address","indexed":false,"internalType":"address"},{"name":"minPrice","type":"uint256","indexed":false,"internalType":"uint256"},{"name":"buyNowPrice","type":"uint256","indexed":false,"internalType":"uint256"}],"anonymous":false},{"type":"event","name":"NftUnlisted","inputs":[{"name":"tokenId","type":"uint256","indexed":false,"internalType":"uint256"}],"anonymous":false},{"type":"event","name":"OwnershipTransferred","inputs":[{"name":"previousOwner","type":"address","indexed":true,"internalType":"address"},{"name":"newOwner","type":"address","indexed":true,"internalType":"address"}],"anonymous":false},{"type":"error","name":"OwnableInvalidOwner","inputs":[{"name":"owner","type":"address","internalType":"address"}]},{"type":"error","name":"OwnableUnauthorizedAccount","inputs":[{"name":"account","type":"address","internalType":"address"}]}],"bytecode":{"object":"0x608060405234801562000010575f80fd5b5060405162002fd438038062002fd4833981810160405281019062000036919062000229565b335f73ffffffffffffffffffffffffffffffffffffffff168173ffffffffffffffffffffffffffffffffffffffff1603620000aa575f6040517f1e4fbdf7000000000000000000000000000000000000000000000000000000008152600401620000a191906200026a565b60405180910390fd5b620000bb816200010360201b60201c565b508060015f6101000a81548173ffffffffffffffffffffffffffffffffffffffff021916908373ffffffffffffffffffffffffffffffffffffffff1602179055505062000285565b5f805f9054906101000a900473ffffffffffffffffffffffffffffffffffffffff169050815f806101000a81548173ffffffffffffffffffffffffffffffffffffffff021916908373ffffffffffffffffffffffffffffffffffffffff1602179055508173ffffffffffffffffffffffffffffffffffffffff168173ffffffffffffffffffffffffffffffffffffffff167f8be0079c531659141344cd1fd0a4f28419497f9722a3daafe3b4186f6b6457e060405160405180910390a35050565b5f80fd5b5f73ffffffffffffffffffffffffffffffffffffffff82169050919050565b5f620001f382620001c8565b9050919050565b6200020581620001e7565b811462000210575f80fd5b50565b5f815190506200022381620001fa565b92915050565b5f60208284031215620002415762000240620001c4565b5b5f620002508482850162000213565b91505092915050565b6200026481620001e7565b82525050565b5f6020820190506200027f5f83018462000259565b92915050565b612d4180620002935f395ff3fe608060405260043610610134575f3560e01c8063961f0944116100aa578063c1278a721161006e578063c1278a72146103f9578063c90941b114610421578063cbeaefd914610449578063de74e57b14610473578063e941fa78146104b3578063f2fde38b146104c957610134565b8063961f0944146103395780639979ef4514610361578063b0136c8d1461037d578063b21f5e21146103a5578063b4b29dc2146103cf57610134565b8063715018a6116100fc578063715018a61461023f5780638185c3ed14610255578063893d20e81461027f5780638da5cb5b146102a95780638f288644146102d357806393fe533b1461030f57610134565b8063107a274a146101385780632e993611146101745780634423c5f11461019c5780635a582260146101d957806368b6fd8714610215575b5f80fd5b348015610143575f80fd5b5061015e60048036038101906101599190611e9b565b6104f1565b60405161016b9190611f94565b60405180910390f35b34801561017f575f80fd5b5061019a60048036038101906101959190611e9b565b6105a8565b005b3480156101a7575f80fd5b506101c260048036038101906101bd9190611e9b565b610713565b6040516101d0929190611fcb565b60405180910390f35b3480156101e4575f80fd5b506101ff60048036038101906101fa919061201c565b610752565b60405161020c9190612047565b60405180910390f35b348015610220575f80fd5b50610229610767565b6040516102369190612047565b60405180910390f35b34801561024a575f80fd5b5061025361076d565b005b348015610260575f80fd5b50610269610780565b6040516102769190612047565b60405180910390f35b34801561028a575f80fd5b5061029361078b565b6040516102a09190612060565b60405180910390f35b3480156102b4575f80fd5b506102bd610799565b6040516102ca9190612060565b60405180910390f35b3480156102de575f80fd5b506102f960048036038101906102f49190611e9b565b6107c0565b60405161030691906120a6565b60405180910390f35b34801561031a575f80fd5b50610323610849565b6040516103309190612047565b60405180910390f35b348015610344575f80fd5b5061035f600480360381019061035a9190611e9b565b61084e565b005b61037b60048036038101906103769190611e9b565b610ae9565b005b348015610388575f80fd5b506103a3600480360381019061039e91906120bf565b6110e4565b005b3480156103b0575f80fd5b506103b9611463565b6040516103c69190612047565b60405180910390f35b3480156103da575f80fd5b506103e3611468565b6040516103f09190612047565b60405180910390f35b348015610404575f80fd5b5061041f600480360381019061041a9190611e9b565b61146e565b005b34801561042c575f80fd5b506104476004803603810190610442919061201c565b6115f0565b005b348015610454575f80fd5b5061045d6117d0565b60405161046a919061216a565b60405180910390f35b34801561047e575f80fd5b5061049960048036038101906104949190611e9b565b6117f5565b6040516104aa959493929190612192565b60405180910390f35b3480156104be575f80fd5b506104c7611852565b005b3480156104d4575f80fd5b506104ef60048036038101906104ea919061201c565b6118f4565b005b6104f9611df4565b60035f8381526020019081526020015f206040518060a00160405290815f82015f9054906101000a900473ffffffffffffffffffffffffffffffffffffffff1673ffffffffffffffffffffffffffffffffffffffff1673ffffffffffffffffffffffffffffffffffffffff168152602001600182015481526020016002820154815260200160038201548152602001600482015f9054906101000a900460ff1615151515815250509050919050565b8060035f8281526020019081526020015f206004015f9054906101000a900460ff16610609576040517f08c379a00000000000000000000000000000000000000000000000000000000081526004016106009061223d565b60405180910390fd5b5f60035f8481526020019081526020015f2090505f816003015411610663576040517f08c379a000000000000000000000000000000000000000000000000000000000815260040161065a906122cb565b60405180910390fd5b80600301544210156106aa576040517f08c379a00000000000000000000000000000000000000000000000000000000081526004016106a190612333565b60405180910390fd5b806001015460045f8581526020019081526020015f20600101541015610705576040517f08c379a00000000000000000000000000000000000000000000000000000000081526004016106fc906123c1565b60405180910390fd5b61070e83611978565b505050565b6004602052805f5260405f205f91509050805f015f9054906101000a900473ffffffffffffffffffffffffffffffffffffffff16908060010154905082565b6005602052805f5260405f205f915090505481565b61038481565b610775611bd6565b61077e5f611c5d565b565b662386f26fc1000081565b5f610794610799565b905090565b5f805f9054906101000a900473ffffffffffffffffffffffffffffffffffffffff16905090565b6107c8611e36565b60045f8381526020019081526020015f206040518060400160405290815f82015f9054906101000a900473ffffffffffffffffffffffffffffffffffffffff1673ffffffffffffffffffffffffffffffffffffffff1673ffffffffffffffffffffffffffffffffffffffff1681526020016001820154815250509050919050565b600581565b8060035f8281526020019081526020015f206004015f9054906101000a900460ff166108af576040517f08c379a00000000000000000000000000000000000000000000000000000000081526004016108a69061223d565b60405180910390fd5b81338073ffffffffffffffffffffffffffffffffffffffff1660035f8481526020019081526020015f205f015f9054906101000a900473ffffffffffffffffffffffffffffffffffffffff1673ffffffffffffffffffffffffffffffffffffffff1614610951576040517f08c379a000000000000000000000000000000000000000000000000000000000815260040161094890612429565b60405180910390fd5b5f73ffffffffffffffffffffffffffffffffffffffff1660045f8681526020019081526020015f205f015f9054906101000a900473ffffffffffffffffffffffffffffffffffffffff1673ffffffffffffffffffffffffffffffffffffffff16146109f1576040517f08c379a00000000000000000000000000000000000000000000000000000000081526004016109e8906124b7565b60405180910390fd5b5f60035f8681526020019081526020015f2090505f816004015f6101000a81548160ff02191690831515021790555060015f9054906101000a900473ffffffffffffffffffffffffffffffffffffffff1673ffffffffffffffffffffffffffffffffffffffff166323b872dd3033886040518463ffffffff1660e01b8152600401610a7e939291906124d5565b5f604051808303815f87803b158015610a95575f80fd5b505af1158015610aa7573d5f803e3d5ffd5b505050507fe8e9e0e3da53ffa908cdc116daf6caa643d3dd80f3e90023a3a80390fff0f24185604051610ada9190612047565b60405180910390a15050505050565b8060035f8281526020019081526020015f206004015f9054906101000a900460ff16610b4a576040517f08c379a0000000000000000000000000000000000000000000000000000000008152600401610b419061223d565b60405180910390fd5b5f60035f8481526020019081526020015f2090505f60045f8581526020019081526020015f205f015f9054906101000a900473ffffffffffffffffffffffffffffffffffffffff1690505f60045f8681526020019081526020015f206001015490503373ffffffffffffffffffffffffffffffffffffffff16835f015f9054906101000a900473ffffffffffffffffffffffffffffffffffffffff1673ffffffffffffffffffffffffffffffffffffffff1603610c3c576040517f08c379a0000000000000000000000000000000000000000000000000000000008152600401610c3390612554565b60405180910390fd5b5f83600301541480610c515750826003015442105b610c90576040517f08c379a0000000000000000000000000000000000000000000000000000000008152600401610c87906125bc565b60405180910390fd5b5f8360020154118015610ca7575082600201543410155b15610dcf575f836002015490505f8134610cc19190612607565b905060405180604001604052803373ffffffffffffffffffffffffffffffffffffffff1681526020018381525060045f8981526020019081526020015f205f820151815f015f6101000a81548173ffffffffffffffffffffffffffffffffffffffff021916908373ffffffffffffffffffffffffffffffffffffffff160217905550602082015181600101559050505f856004015f6101000a81548160ff0219169083151502179055505f73ffffffffffffffffffffffffffffffffffffffff168473ffffffffffffffffffffffffffffffffffffffff1614610da957610da88484611d1e565b5b610db287611978565b5f811115610dc557610dc43382611d1e565b5b50505050506110e0565b8173ffffffffffffffffffffffffffffffffffffffff163373ffffffffffffffffffffffffffffffffffffffff1603610e3d576040517f08c379a0000000000000000000000000000000000000000000000000000000008152600401610e3490612684565b60405180910390fd5b5f808203610ee7578360010154905080341015610e8f576040517f08c379a0000000000000000000000000000000000000000000000000000000008152600401610e86906126ec565b60405180910390fd5b61038442610e9d919061270a565b84600301819055507f6e912a3a9105bdd2af817ba5adc14e6c127c1035b5b648faa29ca0d58ab8ff4e868560030154604051610eda92919061273d565b60405180910390a1610fd5565b606460056064610ef7919061270a565b83610f029190612764565b610f0c91906127d2565b905080341015610f51576040517f08c379a0000000000000000000000000000000000000000000000000000000008152600401610f489061284c565b60405180910390fd5b5f4285600301541115610f7157428560030154610f6e9190612607565b90505b610384811015610fd3576103848560030154610f8d919061270a565b85600301819055507f6e912a3a9105bdd2af817ba5adc14e6c127c1035b5b648faa29ca0d58ab8ff4e878660030154604051610fca92919061273d565b60405180910390a15b505b60405180604001604052803373ffffffffffffffffffffffffffffffffffffffff1681526020013481525060045f8881526020019081526020015f205f820151815f015f6101000a81548173ffffffffffffffffffffffffffffffffffffffff021916908373ffffffffffffffffffffffffffffffffffffffff160217905550602082015181600101559050505f73ffffffffffffffffffffffffffffffffffffffff168373ffffffffffffffffffffffffffffffffffffffff16146110a05761109f8383611d1e565b5b7f0e54eff26401bf69b81b26f60bd85ef47f5d85275c1d268d84f68d6897431c478633346040516110d39392919061286a565b60405180910390a1505050505b5050565b5f60015f9054906101000a900473ffffffffffffffffffffffffffffffffffffffff1673ffffffffffffffffffffffffffffffffffffffff16636352211e856040518263ffffffff1660e01b815260040161113f9190612047565b602060405180830381865afa92505050801561117957506040513d601f19601f8201168201806040525081019061117691906128b3565b60015b6111b8576040517f08c379a00000000000000000000000000000000000000000000000000000000081526004016111af90612928565b60405180910390fd5b809150503373ffffffffffffffffffffffffffffffffffffffff168173ffffffffffffffffffffffffffffffffffffffff161461122a576040517f08c379a000000000000000000000000000000000000000000000000000000000815260040161122190612928565b60405180910390fd5b662386f26fc10000831015611274576040517f08c379a000000000000000000000000000000000000000000000000000000000815260040161126b90612990565b60405180910390fd5b5f8211156112c057818311156112bf576040517f08c379a00000000000000000000000000000000000000000000000000000000081526004016112b690612a1e565b60405180910390fd5b5b60015f9054906101000a900473ffffffffffffffffffffffffffffffffffffffff1673ffffffffffffffffffffffffffffffffffffffff166323b872dd3330876040518463ffffffff1660e01b815260040161131e939291906124d5565b5f604051808303815f87803b158015611335575f80fd5b505af1158015611347573d5f803e3d5ffd5b505050506040518060a001604052803373ffffffffffffffffffffffffffffffffffffffff1681526020018481526020018381526020015f81526020016001151581525060035f8681526020019081526020015f205f820151815f015f6101000a81548173ffffffffffffffffffffffffffffffffffffffff021916908373ffffffffffffffffffffffffffffffffffffffff1602179055506020820151816001015560408201518160020155606082015181600301556080820151816004015f6101000a81548160ff0219169083151502179055509050507f25a68730f6697d9d545f84488657eb1822380b90e55e0bdba23f8c636ba18f60843385856040516114559493929190612a3c565b60405180910390a150505050565b600581565b60025481565b8060035f8281526020019081526020015f206004015f9054906101000a900460ff166114cf576040517f08c379a00000000000000000000000000000000000000000000000000000000081526004016114c69061223d565b60405180910390fd5b81338073ffffffffffffffffffffffffffffffffffffffff1660035f8481526020019081526020015f205f015f9054906101000a900473ffffffffffffffffffffffffffffffffffffffff1673ffffffffffffffffffffffffffffffffffffffff1614611571576040517f08c379a000000000000000000000000000000000000000000000000000000000815260040161156890612429565b60405180910390fd5b5f60045f8681526020019081526020015f20905060035f8681526020019081526020015f2060010154816001015410156115e0576040517f08c379a00000000000000000000000000000000000000000000000000000000081526004016115d790612ac9565b60405180910390fd5b6115e985611978565b5050505050565b8073ffffffffffffffffffffffffffffffffffffffff163373ffffffffffffffffffffffffffffffffffffffff161461165e576040517f08c379a000000000000000000000000000000000000000000000000000000000815260040161165590612b31565b60405180910390fd5b5f60055f8373ffffffffffffffffffffffffffffffffffffffff1673ffffffffffffffffffffffffffffffffffffffff1681526020019081526020015f205490505f81116116e1576040517f08c379a00000000000000000000000000000000000000000000000000000000081526004016116d890612b99565b60405180910390fd5b5f60055f8473ffffffffffffffffffffffffffffffffffffffff1673ffffffffffffffffffffffffffffffffffffffff1681526020019081526020015f20819055505f8273ffffffffffffffffffffffffffffffffffffffff168260405161174890612be4565b5f6040518083038185875af1925050503d805f8114611782576040519150601f19603f3d011682016040523d82523d5f602084013e611787565b606091505b50509050806117cb576040517f08c379a00000000000000000000000000000000000000000000000000000000081526004016117c290612c42565b60405180910390fd5b505050565b60015f9054906101000a900473ffffffffffffffffffffffffffffffffffffffff1681565b6003602052805f5260405f205f91509050805f015f9054906101000a900473ffffffffffffffffffffffffffffffffffffffff1690806001015490806002015490806003015490806004015f9054906101000a900460ff16905085565b61185a611bd6565b5f60025490505f81116118a2576040517f08c379a000000000000000000000000000000000000000000000000000000000815260040161189990612caa565b60405180910390fd5b5f6002819055506118ba6118b4610799565b82611d1e565b7fb7eeacba6b133788365610e83d3f130d07b6ef6e78877961f25b3f61fcba0752816040516118e99190612047565b60405180910390a150565b6118fc611bd6565b5f73ffffffffffffffffffffffffffffffffffffffff168173ffffffffffffffffffffffffffffffffffffffff160361196c575f6040517f1e4fbdf70000000000000000000000000000000000000000000000000000000081526004016119639190612060565b60405180910390fd5b61197581611c5d565b50565b5f60035f8381526020019081526020015f2090505f60045f8481526020019081526020015f206040518060400160405290815f82015f9054906101000a900473ffffffffffffffffffffffffffffffffffffffff1673ffffffffffffffffffffffffffffffffffffffff1673ffffffffffffffffffffffffffffffffffffffff16815260200160018201548152505090505f826004015f6101000a81548160ff02191690831515021790555060045f8481526020019081526020015f205f8082015f6101000a81549073ffffffffffffffffffffffffffffffffffffffff0219169055600182015f9055505060015f9054906101000a900473ffffffffffffffffffffffffffffffffffffffff1673ffffffffffffffffffffffffffffffffffffffff166323b872dd30835f0151866040518463ffffffff1660e01b8152600401611ac5939291906124d5565b5f604051808303815f87803b158015611adc575f80fd5b505af1158015611aee573d5f803e3d5ffd5b505050505f606460058360200151611b069190612764565b611b1091906127d2565b90508060025f828254611b23919061270a565b925050819055505f818360200151611b3b9190612607565b9050611b69845f015f9054906101000a900473ffffffffffffffffffffffffffffffffffffffff1682611d1e565b7f3e25c3675d003af5184b628dd8bd4775b9b3abc7351c3574c90870ca25b55f1185845f0151865f015f9054906101000a900473ffffffffffffffffffffffffffffffffffffffff168660200151604051611bc79493929190612cc8565b60405180910390a15050505050565b611bde611ded565b73ffffffffffffffffffffffffffffffffffffffff16611bfc610799565b73ffffffffffffffffffffffffffffffffffffffff1614611c5b57611c1f611ded565b6040517f118cdaa7000000000000000000000000000000000000000000000000000000008152600401611c529190612060565b60405180910390fd5b565b5f805f9054906101000a900473ffffffffffffffffffffffffffffffffffffffff169050815f806101000a81548173ffffffffffffffffffffffffffffffffffffffff021916908373ffffffffffffffffffffffffffffffffffffffff1602179055508173ffffffffffffffffffffffffffffffffffffffff168173ffffffffffffffffffffffffffffffffffffffff167f8be0079c531659141344cd1fd0a4f28419497f9722a3daafe3b4186f6b6457e060405160405180910390a35050565b5f810315611de9575f8273ffffffffffffffffffffffffffffffffffffffff1682604051611d4b90612be4565b5f6040518083038185875af1925050503d805f8114611d85576040519150601f19603f3d011682016040523d82523d5f602084013e611d8a565b606091505b5050905080611de7578160055f8573ffffffffffffffffffffffffffffffffffffffff1673ffffffffffffffffffffffffffffffffffffffff1681526020019081526020015f205f828254611ddf919061270a565b925050819055505b505b5050565b5f33905090565b6040518060a001604052805f73ffffffffffffffffffffffffffffffffffffffff1681526020015f81526020015f81526020015f81526020015f151581525090565b60405180604001604052805f73ffffffffffffffffffffffffffffffffffffffff1681526020015f81525090565b5f80fd5b5f819050919050565b611e7a81611e68565b8114611e84575f80fd5b50565b5f81359050611e9581611e71565b92915050565b5f60208284031215611eb057611eaf611e64565b5b5f611ebd84828501611e87565b91505092915050565b5f73ffffffffffffffffffffffffffffffffffffffff82169050919050565b5f611eef82611ec6565b9050919050565b611eff81611ee5565b82525050565b611f0e81611e68565b82525050565b5f8115159050919050565b611f2881611f14565b82525050565b60a082015f820151611f425f850182611ef6565b506020820151611f556020850182611f05565b506040820151611f686040850182611f05565b506060820151611f7b6060850182611f05565b506080820151611f8e6080850182611f1f565b50505050565b5f60a082019050611fa75f830184611f2e565b92915050565b611fb681611ee5565b82525050565b611fc581611e68565b82525050565b5f604082019050611fde5f830185611fad565b611feb6020830184611fbc565b9392505050565b611ffb81611ee5565b8114612005575f80fd5b50565b5f8135905061201681611ff2565b92915050565b5f6020828403121561203157612030611e64565b5b5f61203e84828501612008565b91505092915050565b5f60208201905061205a5f830184611fbc565b92915050565b5f6020820190506120735f830184611fad565b92915050565b604082015f82015161208d5f850182611ef6565b5060208201516120a06020850182611f05565b50505050565b5f6040820190506120b95f830184612079565b92915050565b5f805f606084860312156120d6576120d5611e64565b5b5f6120e386828701611e87565b93505060206120f486828701611e87565b925050604061210586828701611e87565b9150509250925092565b5f819050919050565b5f61213261212d61212884611ec6565b61210f565b611ec6565b9050919050565b5f61214382612118565b9050919050565b5f61215482612139565b9050919050565b6121648161214a565b82525050565b5f60208201905061217d5f83018461215b565b92915050565b61218c81611f14565b82525050565b5f60a0820190506121a55f830188611fad565b6121b26020830187611fbc565b6121bf6040830186611fbc565b6121cc6060830185611fbc565b6121d96080830184612183565b9695505050505050565b5f82825260208201905092915050565b7f4e4654206973206e6f74206c69737465640000000000000000000000000000005f82015250565b5f6122276011836121e3565b9150612232826121f3565b602082019050919050565b5f6020820190508181035f8301526122548161221b565b9050919050565b7f41756374696f6e20686173206e6f74207374617274656420286e6f20626964735f8201527f2900000000000000000000000000000000000000000000000000000000000000602082015250565b5f6122b56021836121e3565b91506122c08261225b565b604082019050919050565b5f6020820190508181035f8301526122e2816122a9565b9050919050565b7f41756374696f6e20686173206e6f7420656e64656400000000000000000000005f82015250565b5f61231d6015836121e3565b9150612328826122e9565b602082019050919050565b5f6020820190508181035f83015261234a81612311565b9050919050565b7f486967686573742062696420646964206e6f74206d656574206d696e207072695f8201527f6365000000000000000000000000000000000000000000000000000000000000602082015250565b5f6123ab6022836121e3565b91506123b682612351565b604082019050919050565b5f6020820190508181035f8301526123d88161239f565b9050919050565b7f4e6f74207468652073656c6c65720000000000000000000000000000000000005f82015250565b5f612413600e836121e3565b915061241e826123df565b602082019050919050565b5f6020820190508181035f83015261244081612407565b9050919050565b7f43616e6e6f7420756e6c6973742c20612062696420686173206265656e20706c5f8201527f6163656400000000000000000000000000000000000000000000000000000000602082015250565b5f6124a16024836121e3565b91506124ac82612447565b604082019050919050565b5f6020820190508181035f8301526124ce81612495565b9050919050565b5f6060820190506124e85f830186611fad565b6124f56020830185611fad565b6125026040830184611fbc565b949350505050565b7f53656c6c65722063616e6e6f74206269640000000000000000000000000000005f82015250565b5f61253e6011836121e3565b91506125498261250a565b602082019050919050565b5f6020820190508181035f83015261256b81612532565b9050919050565b7f41756374696f6e20656e646564000000000000000000000000000000000000005f82015250565b5f6125a6600d836121e3565b91506125b182612572565b602082019050919050565b5f6020820190508181035f8301526125d38161259a565b9050919050565b7f4e487b71000000000000000000000000000000000000000000000000000000005f52601160045260245ffd5b5f61261182611e68565b915061261c83611e68565b9250828203905081811115612634576126336125da565b5b92915050565b7f416c7265616479206869676865737420626964646572000000000000000000005f82015250565b5f61266e6016836121e3565b91506126798261263a565b602082019050919050565b5f6020820190508181035f83015261269b81612662565b9050919050565b7f466972737420626964206d757374206265203e3d206d696e20707269636500005f82015250565b5f6126d6601e836121e3565b91506126e1826126a2565b602082019050919050565b5f6020820190508181035f830152612703816126ca565b9050919050565b5f61271482611e68565b915061271f83611e68565b9250828201905080821115612737576127366125da565b5b92915050565b5f6040820190506127505f830185611fbc565b61275d6020830184611fbc565b9392505050565b5f61276e82611e68565b915061277983611e68565b925082820261278781611e68565b9150828204841483151761279e5761279d6125da565b5b5092915050565b7f4e487b71000000000000000000000000000000000000000000000000000000005f52601260045260245ffd5b5f6127dc82611e68565b91506127e783611e68565b9250826127f7576127f66127a5565b5b828204905092915050565b7f426964206e6f74206869676820656e6f756768000000000000000000000000005f82015250565b5f6128366013836121e3565b915061284182612802565b602082019050919050565b5f6020820190508181035f8301526128638161282a565b9050919050565b5f60608201905061287d5f830186611fbc565b61288a6020830185611fad565b6128976040830184611fbc565b949350505050565b5f815190506128ad81611ff2565b92915050565b5f602082840312156128c8576128c7611e64565b5b5f6128d58482850161289f565b91505092915050565b7f4e6f7420746865206f776e6572000000000000000000000000000000000000005f82015250565b5f612912600d836121e3565b915061291d826128de565b602082019050919050565b5f6020820190508181035f83015261293f81612906565b9050919050565b7f4d696e20707269636520746f6f206c6f770000000000000000000000000000005f82015250565b5f61297a6011836121e3565b915061298582612946565b602082019050919050565b5f6020820190508181035f8301526129a78161296e565b9050919050565b7f4d696e2070726963652063616e6e6f742065786365656420627579206e6f77205f8201527f7072696365000000000000000000000000000000000000000000000000000000602082015250565b5f612a086025836121e3565b9150612a13826129ae565b604082019050919050565b5f6020820190508181035f830152612a35816129fc565b9050919050565b5f608082019050612a4f5f830187611fbc565b612a5c6020830186611fad565b612a696040830185611fbc565b612a766060830184611fbc565b95945050505050565b7f48696768657374206269642069732062656c6f77206d696e20707269636500005f82015250565b5f612ab3601e836121e3565b9150612abe82612a7f565b602082019050919050565b5f6020820190508181035f830152612ae081612aa7565b9050919050565b7f4e6f7420726563656976657200000000000000000000000000000000000000005f82015250565b5f612b1b600c836121e3565b9150612b2682612ae7565b602082019050919050565b5f6020820190508181035f830152612b4881612b0f565b9050919050565b7f4e6f206372656469747320746f207769746864726177000000000000000000005f82015250565b5f612b836016836121e3565b9150612b8e82612b4f565b602082019050919050565b5f6020820190508181035f830152612bb081612b77565b9050919050565b5f81905092915050565b50565b5f612bcf5f83612bb7565b9150612bda82612bc1565b5f82019050919050565b5f612bee82612bc4565b9150819050919050565b7f5769746864726177206661696c656400000000000000000000000000000000005f82015250565b5f612c2c600f836121e3565b9150612c3782612bf8565b602082019050919050565b5f6020820190508181035f830152612c5981612c20565b9050919050565b7f4e6f206665657320746f207769746864726177000000000000000000000000005f82015250565b5f612c946013836121e3565b9150612c9f82612c60565b602082019050919050565b5f6020820190508181035f830152612cc181612c88565b9050919050565b5f608082019050612cdb5f830187611fbc565b612ce86020830186611fad565b612cf56040830185611fad565b612d026060830184611fbc565b9594505050505056fea264697066735822122040345c461466f5ee2b3aa96f92ba1940dcf9b565d60748e80479f320bc164cb964736f6c63430008140033","linkReferences":{}},"methodIdentifiers":{"BBERC721()":"cbeaefd9","S_AUCTION_EXTENSION_DURATION()":"68b6fd87","S_FEE_PERCENTAGE()":"93fe533b","S_MIN_BID_INCREMENT_PERCENTAGE()":"b21f5e21","S_MIN_NFT_PRICE()":"8185c3ed","bids(uint256)":"4423c5f1","failedTransferCredits(address)":"5a582260","getHighestBid(uint256)":"8f288644","getListing(uint256)":"107a274a","getOwner()":"893d20e8","listNFT(uint256,uint256,uint256)":"b0136c8d","listings(uint256)":"de74e57b","owner()":"8da5cb5b","placeBid(uint256)":"9979ef45","renounceOwnership()":"715018a6","s_totalFee()":"b4b29dc2","settleAuction(uint256)":"2e993611","takeHighestBid(uint256)":"c1278a72","transferOwnership(address)":"f2fde38b","unlistNFT(uint256)":"961f0944","withdrawAllFailedCredits(address)":"c90941b1","withdrawFee()":"e941fa78"},"id":34}